:020000040800F2
:1000000000A0002079E900082D33000835330008EE
:100010003D330008453300084D3300080000000060
:100020000000000000000000000000005533000840
:100030006333000800000000713300087F330008BC
:10004000C9E90008C9E90008C9E90008C9E90008C8
:10005000C9E90008C9E90008C9E90008C9E90008B8
:10006000C9E90008C9E90008C9E900088D3300089A
:10007000C9E90008C9E90008C9E90008C9E9000898
:10008000C9E90008C9E90008C9E90008A133000866
:10009000B5330008C9E90008C9E90008C9E9000842
:1000A000C9E90008C9E90008C9E90008C9E9000868
:1000B000C9E90008C9330008C9E90008C9E900080E
:1000C000C9E90008C9E90008C9E90008C9E9000848
:1000D000C9E90008C9E90008C9E90008C9E9000838
:1000E000C9E90008C9E90008C9E90008C9E9000828
:1000F000C9E90008C9E90008C9E90008C9E9000818
:10010000000000000000000000000000C9E9000835
:10011000C9E90008C9E90008C9E90008C9E90008F7
:10012000DD330008C9E90008C9E90008C9E9000889
:10013000C9E90008C9E9000800000000000000004B
:10014000C9E90008C9E90008C9E900080000000081
:10015000000000000000000000000000000000009F
:100160000000000000000000C9E90008C9E900081B
:10017000C9E90008000000000000000000000000C5
:0801800000000000C9E90008BD
:1001900010B5054C237833B9044B13B10448AFF3C1
:1001A00000800123237010BD4C03002000000000DC
:1001B000A424010808B5034B1BB103490348AFF35E
:1001C000008008BD0000000050030020A4240108A6
:1001D00010F8012B11F8013B012A28BF9A42F7D0F1
:1001E000D01A70470000000000000000000000006E
:1001F00001F0FF01102A2BDB10F0070F08D010F8D8
:10020000013B013A8B422DD010F0070F42B3F6D1DB
:10021000F0B441EA012141EA014122F007047FF0F4
:1002200000070023F0E80256083C85EA010586EA4B
:10023000010685FA47F5A3FA87F586FA47F6A5FA87
:1002400087F68EB9EED1F0BC01F0FF0102F0070293
:1002500032B110F8013B013A83EA010313B1F8D13E
:100260000020704701387047002D06BF354603381F
:10027000073815F0010F07D1013015F4807F02BF58
:10028000013015F4C03F0130F0BC0138704700BFA9
:10029000034613F8012B002AFBD1181A01387047C6
:1002A00081F0004102E000BF83F0004330B54FEA27
:1002B00041044FEA430594EA050F08BF90EA020F94
:1002C0001FBF54EA000C55EA020C7FEA645C7FEA27
:1002D000655C00F0E2804FEA5454D4EB5555B8BF4A
:1002E0006D420CDD2C4480EA020281EA030382EABB
:1002F000000083EA010180EA020281EA0303362D4D
:1003000088BF30BD11F0004F4FEA01314FF4801C1F
:100310004CEA113102D0404261EB410113F0004F31
:100320004FEA03334CEA133302D0524263EB4303E8
:1003300094EA050F00F0A780A4F10104D5F1200E86
:100340000DDB02FA0EFC22FA05F2801841F10001E1
:1003500003FA0EF2801843FA05F359410EE0A5F1B5
:1003600020050EF1200E012A03FA0EFC28BF4CF0E6
:10037000020C43FA05F3C01851EBE37101F000459C
:1003800007D54FF0000EDCF1000C7EEB00006EEBA9
:100390000101B1F5801F1BD3B1F5001F0CD3490833
:1003A0005FEA30004FEA3C0C04F101044FEA44528A
:1003B00012F5800F80F09A80BCF1004F08BF5FEA11
:1003C000500C50F1000041EB045141EA050130BDF1
:1003D0005FEA4C0C404141EB0101013C28BFB1F503
:1003E000801FE9D291F0000F04BF01460020B1FA4E
:1003F00081F308BF2033A3F10B03B3F120020CDA21
:100400000C3208DD02F1140CC2F10C0201FA0CF0FE
:1004100021FA02F10CE002F11402D8BFC2F1200C63
:1004200001FA02F120FA0CFCDCBF41EA0C01904019
:10043000E41AA2BF01EB0451294330BD6FEA040462
:100440001F3C1CDA0C340EDC04F11404C4F120024D
:1004500020FA04F001FA02F340EA030021FA04F35F
:1004600045EA030130BDC4F10C04C4F1200220FAB6
:1004700002F001FA04F340EA0300294630BD21FAF4
:1004800004F0294630BD94F0000F83F4801306BFBA
:1004900081F480110134013D4EE77FEA645C18BFAE
:1004A0007FEA655C29D094EA050F08BF90EA020F45
:1004B00005D054EA000C04BF1946104630BD91EA3D
:1004C000030F1EBF0021002030BD5FEA545C05D140
:1004D0004000494128BF41F0004130BD14F580047F
:1004E0003CBF01F5801130BD01F0004545F0FE41F3
:1004F00041F470014FF0000030BD7FEA645C1ABF28
:10050000194610467FEA655C1CBF0B46024650EA5E
:10051000013406BF52EA033591EA030F41F400218A
:1005200030BD00BF90F0000F04BF0021704730B510
:100530004FF4806404F132044FF000054FF00001E5
:1005400050E700BF90F0000F04BF0021704730B5A6
:100550004FF4806404F1320410F0004548BF40427B
:100560004FF000013EE700BF42004FEAE2014FEAD0
:1005700031014FEA02701FBF12F07F4393F07F4FAB
:1005800081F06051704732F07F4208BF704793F0AE
:100590007F4F04BF41F40021704730B54FF46074C1
:1005A00001F0004521F000411CE700BF50EA0102C4
:1005B00008BF704730B54FF000050AE050EA01026D
:1005C00008BF704730B511F0004502D5404261EBDD
:1005D00041014FF4806404F132045FEA915C3FF41E
:1005E000D8AE4FF003025FEADC0C18BF03325FEABB
:1005F000DC0C18BF033202EBDC02C2F1200300FA6C
:1006000003FC20FA02F001FA03FE40EA0E0021FA90
:1006100002F11444BDE600BF70B54FF0FF0C4CF47E
:10062000E06C1CEA11541DBF1CEA135594EA0C0F30
:1006300095EA0C0F00F0DEF82C4481EA030621EA6B
:100640004C5123EA4C5350EA013518BF52EA0335A6
:1006500041F4801143F4801338D0A0FB02CE4FF058
:100660000005E1FB02E506F00042E0FB03E54FF088
:100670000006E1FB03569CF0000F18BF4EF0010E80
:10068000A4F1FF04B6F5007F64F5407404D25FEA7C
:100690004E0E6D4146EB060642EAC62141EA55512F
:1006A0004FEAC52040EA5E504FEACE2EB4F1FD0C71
:1006B00088BFBCF5E06F1ED8BEF1004F08BF5FEAEF
:1006C000500E50F1000041EB045170BD06F00046A1
:1006D00046EA010140EA020081EA0301B4EB5C044E
:1006E000C2BFD4EB0C0541EA045170BD41F4801146
:1006F0004FF0000E013C00F3AB8014F1360FDEBF6B
:10070000002001F0004170BDC4F10004203C35DA46
:100710000C341BDC04F11404C4F1200500FA05F3C9
:1007200020FA04F001FA05F240EA020001F000426A
:1007300021F0004110EBD37021FA04F642EB0601E0
:100740005EEA430E08BF20EAD37070BDC4F10C040A
:10075000C4F1200500FA04F320FA05F001FA04F2CE
:1007600040EA020001F0004110EBD37041F10001BA
:100770005EEA430E08BF20EAD37070BDC4F12005C5
:1007800000FA05F24EEA020E20FA04F301FA05F22D
:1007900043EA020321FA04F001F0004121FA04F2D5
:1007A00020EA020000EBD3705EEA430E08BF20EAA5
:1007B000D37070BD94F0000F0FD101F000464000DF
:1007C00041EB010111F4801F08BF013CF7D041EA61
:1007D000060195F0000F18BF704703F00046520065
:1007E00043EB030313F4801F08BF013DF7D043EA36
:1007F0000603704794EA0C0F0CEA135518BF95EAEC
:100800000C0F0CD050EA410618BF52EA4306D1D172
:1008100081EA030101F000414FF0000070BD50EA91
:10082000410606BF1046194652EA430619D094EA1B
:100830000C0F02D150EA013613D195EA0C0F05D105
:1008400052EA03361CBF104619460AD181EA030159
:1008500001F0004141F0FE4141F470014FF0000011
:1008600070BD41F0FE4141F4780170BD70B54FF0AC
:10087000FF0C4CF4E06C1CEA11541DBF1CEA13552C
:1008800094EA0C0F95EA0C0F00F0A7F8A4EB05040E
:1008900081EA030E52EA03354FEA013100F0888005
:1008A0004FEA03334FF0805545EA131343EA1263CE
:1008B0004FEA022245EA111545EA10654FEA002683
:1008C0000EF000419D4208BF964244F1FD0404F53C
:1008D000407402D25B084FEA3202B61A65EB030598
:1008E0005B084FEA32024FF480104FF4002CB6EB55
:1008F000020E75EB030E22BFB61A754640EA0C00D5
:100900005B084FEA3202B6EB020E75EB030E22BF14
:10091000B61A754640EA5C005B084FEA3202B6EB55
:10092000020E75EB030E22BFB61A754640EA9C0014
:100930005B084FEA3202B6EB020E75EB030E22BFE4
:10094000B61A754640EADC0055EA060E18D04FEAA2
:10095000051545EA16754FEA06164FEAC30343EA42
:1009600052734FEAC2025FEA1C1CC0D111F4801F0F
:100970000BD141EA00014FF000004FF0004CB6E708
:1009800011F4801F04BF01430020B4F1FD0C88BFA7
:10099000BCF5E06F3FF6AFAEB5EB030C04BFB6EBB2
:1009A000020C5FEA500C50F1000041EB045170BDA5
:1009B0000EF0004E4EEA113114EB5C04C2BFD4EBD2
:1009C0000C0541EA045170BD41F480114FF0000E56
:1009D000013C90E645EA060E8DE60CEA135594EAD2
:1009E0000C0F08BF95EA0C0F3FF43BAF94EA0C0FD5
:1009F0000AD150EA01347FF434AF95EA0C0F7FF44A
:100A000025AF104619462CE795EA0C0F06D152EA9D
:100A100003353FF4FDAE1046194622E750EA410681
:100A200018BF52EA43067FF4C5AE50EA41047FF492
:100A30000DAF52EA43057FF4EBAE12E74FF0FF3CF7
:100A400006E000BF4FF0010C02E000BF4FF0010CC8
:100A50004DF804CD4FEA410C7FEA6C5C4FEA430C41
:100A600018BF7FEA6C5C1BD001B050EA410C0CBF90
:100A700052EA430C91EA030F02BF90EA020F0020F2
:100A8000704710F1000F91EA030F58BF994208BF59
:100A900090422CBFD8176FEAE37040F00100704716
:100AA0004FEA410C7FEA6C5C02D150EA013C07D16D
:100AB0004FEA430C7FEA6C5CD6D152EA033CD3D0B8
:100AC0005DF8040B704700BF8446104662468C46B2
:100AD0001946634600E000BF01B5FFF7B7FF0028E5
:100AE00048BF10F1000F01BD4DF808EDFFF7F4FF0E
:100AF0000CBF012000205DF808FB00BF4DF808ED99
:100B0000FFF7EAFF34BF012000205DF808FB00BFBB
:100B10004DF808EDFFF7E0FF94BF012000205DF8DD
:100B200008FB00BF4DF808EDFFF7CEFF94BF012092
:100B300000205DF808FB00BF4DF808EDFFF7C4FF8B
:100B400034BF012000205DF808FB00BF4FEA410CD4
:100B50007FEA6C5C02D150EA013C0AD14FEA430CB7
:100B60007FEA6C5C02D152EA033C02D14FF00000F4
:100B700070474FF0010070474FEA410212F5001232
:100B800015D211D56FF47873B3EB625212D94FEAD4
:100B9000C12343F0004343EA505311F0004F23FABE
:100BA00002F018BF404270474FF00000704750EA13
:100BB000013005D111F0004008BF6FF000407047D0
:100BC0004FF00000704700BF80B58AB000AF78607A
:100BD000396007F10C0300221A605A609A60DA60EB
:100BE0001A615A613B68FB6001233B610023BB61D2
:100BF00007237B610023FB6100233B6207F10C03A9
:100C00001946786803F0CCF80346002B01D00E4B50
:100C100016E0786802F068FE3221786802F0B0FFD2
:100C20000346002B08D1786803F0ACF87862786846
:100C300002F070FF7B6A03E0786802F06BFF034B01
:100C400018462837BD4680BD9F860100385B0100ED
:100C500080B483B000AF78607B68104A934202D1C1
:100C6000DFED0F7A13E07B680E4A934202D1DFED8D
:100C70000E7A0CE07B6807EE903AF8EE677A9FED0B
:100C80000B7A27EE877ADFED0A6AC7EE267AB0EE96
:100C9000670A0C37BD465DF8047B70479F860100EC
:100CA000CDCCC742385B01009A99B14233335340EF
:100CB00000F07F4580B586B000AF87ED010AD7ED23
:100CC000017A9FED347AF4EEC77AF1EE10FA01DB87
:100CD000314B57E0D7ED017A9FED307AF4EEC77AC9
:100CE000F1EE10FA01DB2E4B4CE0D7ED017A9FEDCF
:100CF0002D7AF4EEC77AF1EE10FA01D82A4B41E0D2
:100D0000D7ED017A9FED297AF4EEC77AF1EE10FA69
:100D100001DB274B36E0D7ED017A9FED267A67EEAF
:100D2000876A9FED257AD7ED017A37EE677AC6EEAE
:100D3000877AC7ED057AD7ED057ADFED1E6A87EE73
:100D4000A67AB0EE470A11F07DFAF0EE407A9FEDF8
:100D50001B7A67EE877A9FED1A7A77EE877AC7ED6E
:100D6000047AF7EE006A97ED047AC6EE877AC7ED4B
:100D7000037AD7ED037A9FED137A77EEC77AC7ED42
:100D8000027ABB6807EE903AB0EE670A1837BD46A4
:100D900080BD00BF0000C6429AF979440000B0420D
:100DA00033335E440AD7233C008088C35C8F5240B3
:100DB000000089C300401C46333353402CBB8439A8
:100DC0000FCF5B3B3393884380B487B000AF78602C
:100DD00039600023FB7500233B6122E03B697A68A0
:100DE00013441A78FB7D5340FB750023FB6012E02F
:100DF00097F91730002B08DA97F917305B005BB2D0
:100E000083F007035BB2FB7502E0FB7D5B00FB75C3
:100E1000FB680133FB60FB68072BE9DD3B690133AD
:100E20003B613A693B689A42D8DBFB7D18461C3728
:100E3000BD465DF8047B704780B588B002AF0346BD
:100E40000A46FB711346BB711F4B1B78002B36D033
:100E50001E4B1B78002B22D01B4B1B783B75FB795C
:100E60007B75BB79BB75184B1B783B74FB797B7426
:100E7000BB79BB7407F1100303211846FFF7A4FFE9
:100E80000346FB75104B1B78194607F114035A1CD7
:100E90006423009303230E4804F076F910E0FB79F5
:100EA0003B73BB797B73084B1B78194607F10C0227
:100EB000642300930223064804F066F900E000BFB3
:100EC0001837BD4680BD00BFFC070020FD0700208D
:100ED0009004002080B5A8B004AF03463960FB71D0
:100EE0001346BB80244B1B78002B41D0234B1B782F
:100EF000002B2DD0204B1B781846FB799AB2BB886B
:100F00005B009BB264210291019307F10C030093F3
:100F1000012301461A4804F04FFA0023C7F88C3029
:100F200010E0D7F88C305A00D7F88C3039680B4471
:100F300090323A4412F8842C1A70D7F88C3001336E
:100F4000C7F88C30BB88D7F88C209A42E9DB10E0D8
:100F5000094B1B781946FB799AB264230293BB882C
:100F600001933B6800930123054804F025FA00E053
:100F700000BF9037BD4680BDFC070020FD07002064
:100F80009004002080B584B000AF154B1B78002B77
:100F900002D14FF000031CE00023BB803B1D022266
:100FA00019463220FFF796FF3B791BB21B021AB29B
:100FB0007B791BB21343FB81B7F90E3007EE903AF1
:100FC000F8EEE77A9FED077A67EE877AC7ED027A47
:100FD000BB6807EE903AB0EE670A1037BD4680BD99
:100FE000FC070020E23FDD3980B500AF064B002250
:100FF0001A8000210120FFF71FFF00210220FFF7C8
:101000001BFF00BF80BD00BF2C08002080B582B050
:1010100000AF0346FB71FB7919460520FFF70CFF73
:10102000034AFB79137000BF0837BD4680BD00BF7F
:101030000400002080B400AF084B1B78002B01D0C7
:10104000022306E0064B1B78002B14BF012300236C
:10105000DBB21846BD465DF8047B704735080020BA
:101060003408002080B500AF0C4B1B78002B01D05A
:10107000022310E00A4B1B78002B09D0094B1B7888
:10108000002B03D1084B1B78002B01D0022302E078
:10109000FFF7D0FF0346184680BD00BF360800208A
:1010A00034080020370800203808002080B500AF41
:1010B000FFF7D8FF0346012B0CBF01230023DBB24F
:1010C000184680BD80B500AFFFF7CCFF0346002B6C
:1010D0000CBF01230023DBB2184680BD80B483B06F
:1010E00000AF0346FB71FB79012B02D0022B02D02B
:1010F00003E0054B02E0054B00E0054B18460C37BA
:10110000BD465DF8047B7047C0240108C82401086F
:10111000CC24010880B500AF0A4B1B78002B0ED001
:10112000FF210020FFF788FE10210420FFF784FE36
:10113000054BFF221A70C020FFF768FF00E000BFD8
:1011400080BD00BFFC0700200400002080B582B0F5
:1011500000AF0A2302221021134804F047FA034685
:10116000FB71FB79002B06D1104B10221A70104B2B
:1011700000221A7014E00A23022230210A4804F0E7
:1011800035FA0346FB71FB79002B06D1074B302261
:101190001A70074B00221A7002E0044B00221A70EA
:1011A0000837BD4680BD00BF90040020FC0700202A
:1011B000FD0700202DE9F04FADF5397D3CAF02F081
:1011C00029F901F035F801F039FB01F005FB0DF0CC
:1011D000FDFB01F0D5F901F095F801F03BF901F0C4
:1011E0000FFA01F07FFA4FF4FA7002F079F900215A
:1011F000B74807F01FFFB64B1B685A6CB44B1B680F
:1012000042F400425A64642001F00EFD07F5BC73FD
:1012100000221A605A609A60DA601A614023C7F8A7
:1012200078310223C7F87C310123C7F880310023CD
:10123000C7F884310223C7F8883107F5BC73194613
:10124000A44803F041FD0021A34808F055F8A24B43
:101250001B68DA68A04B1B6842F00102DA6002F0FA
:1012600033F903469D4A136007F5B27300221A60F2
:101270005A609A60DA601A611023C7F8643101235A
:10128000C7F868310023C7F86C310023C7F8703104
:1012900007F5B2731946924803F016FD002210219B
:1012A0008F4803F0A3FEFFF751FF8E4B1B78002BF6
:1012B00004D0FFF72FFF642002F012F9894B1B784E
:1012C000002B22D1FFF742FF874A4FF42071874855
:1012D0000EF052FEC7F88C01D7F88C319BB219463C
:1012E00082480DF083FC4FF400617A4803F096FECB
:1012F0004FF4FA7002F0F4F87A4B1B78002B00F0F0
:101300008987FFF707FF00F085BF794B1B78DBB2B9
:10131000002B05D0774801F00BFB754B00221A70AB
:10132000002387F8603107F5B073012219460020C9
:10133000FFF7D0FD002387F85C3107F5AE7301227B
:1013400019460420FFF7C6FD97F85C3123F07F03B0
:10135000DBB287F85C318E210920FFF76DFDB921E2
:101360000A20FFF769FD87210620FFF765FD0F21A1
:101370000720FFF761FD07F5A47300221A605A6089
:101380009A60DA601A6107F5A473142219460C20DA
:10139000FFF7A0FD0023C7F8EC313BE0D7F8EC31B4
:1013A0005B0003F5907307F1D002134413F8A83CD7
:1013B0001BB21B021AB2D7F8EC315B00013303F504
:1013C000907307F1D0010B4413F8A83C1BB21343F0
:1013D0001BB2C3F30D03A7F89231B7F9923107EEB0
:1013E000903AF8EEE77A9FED447A27EE877ADFEDC0
:1013F000436AC7EE267A07F5F873A3F59072D7F81B
:10140000EC319B001344C3ED007AD7F8EC31013383
:10141000C7F8EC31D7F8EC31092BBFDDFFF7B2FD8F
:10142000F0EE407A9FED367A77EE677AC7ED6A7A0A
:10143000012387F8EB310023C7F8E43119E007F501
:10144000F873A3F59072D7F8E4319B001344D3ED01
:10145000007A9FED2C7AF4EEC77AF1EE10FA03DDF4
:10146000002387F8EB3108E0D7F8E4310133C7F8FF
:10147000E431D7F8E431092BE1DD97F8EB31002BAB
:1014800046D0214B1B78002B05D11F4B01221A702F
:10149000FFF740FE10E0134B1B781C4A4FF42071FD
:1014A00012480EF069FDC7F89401D7F894319BB249
:1014B00019460E480DF09AFB4FF40061054803F001
:1014C000ADFD4FF4FA7002F00BF800F0A4BE00BFBF
:1014D0003005002000080048E40400200C0800202B
:1014E00000040048FC070020D82401087C050020E7
:1014F000980B0020580B00200000BF4300247449C3
:10150000C520303DCDCCCC3DFD070020FC2401089A
:101510000121C848FFF758FB03461846FFF798FB20
:10152000F0EE407AC7ED3E7A0221C248FFF74CFB4D
:1015300003461846FFF78CFBF0EE407AC7ED3F7A82
:101540000321BC48FFF740FB03461846FFF780FB2A
:10155000F0EE407AC7ED407A0421B648FFF734FB3D
:1015600003461846FFF774FBF0EE407AC7ED417A68
:101570000521B048FFF728FB03461846FFF768FB34
:10158000F0EE407AC7ED427A0121AB48FFF71CFB31
:1015900003461846FFF75CFBF0EE407AC7ED437A4E
:1015A0000221A548FFF710FB03461846FFF750FB42
:1015B000F0EE407AC7ED447A03219F48FFF704FB21
:1015C00003461846FFF744FBF0EE407AC7ED457A34
:1015D00004219948FFF7F8FA03461846FFF738FB4D
:1015E000F0EE407AC7ED467A05219348FFF7ECFA12
:1015F00003461846FFF72CFBF0EE407AC7ED477A1A
:101600000023C7F8E03120E0D7F8E0319B0003F574
:10161000907307F1D0021344F83BD3ED007AB0EE9B
:10162000670AFFF747FBF0EE407AD7F8E0319B00FE
:1016300003F5907307F1D0021344D03BC3ED007A59
:10164000D7F8E0310133C7F8E031D7F8E031092BA2
:10165000DADD7A4B1B78002B24D14FF48061784877
:1016600003F0ACFC034687F8A7314FF400617448DF
:1016700003F0A4FC034687F8A63197F8A731012BA5
:101680000CBF01230023DBB21A466E4B1A7097F889
:10169000A631002B0CBF01230023DBB21A466A4B94
:1016A0001A700DE0694B1B78002B0CBF012300233F
:1016B000DBB21A46634B1A70654B1A78624B1A708C
:1016C000644BC7F8DC310023C7F8D83146E0D7F8BF
:1016D000D8319B0003F5907307F1D0021344D03B3F
:1016E000D3ED007A9FED5C7AF4EEC77AF1EE10FA52
:1016F0002FDDD7F8D8319B0003F5907307F1D002A6
:101700001344D03BD3ED007A9FED547AF4EEC77AC0
:10171000F1EE10FA1DD5D7F8D8319B0003F5907380
:1017200007F1D0021344D03BD3ED007A97ED777ADE
:10173000B4EEE77AF1EE10FA0BD5D7F8D8319B006A
:1017400003F5907307F1D0021344D03B1B68C7F830
:10175000DC31D7F8D8310133C7F8D831D7F8D831D0
:10176000092BB4DDD7ED777A9FED3D7AF4EEC77A99
:10177000F1EE10FA08DD3B4B01221A70C020FFF792
:1017800045FCFFF731FC18E0364B1B78002B14D0DA
:10179000D7ED777A9FED347AF4EEC77AF1EE10FA4E
:1017A0000BD5D7ED777A9FED2C7AF4EEC77AF1EE70
:1017B00010FA02DD2B4B00221A702A4B1B78002BEB
:1017C00003D12A4B1B78002B03D0C020FFF71EFC4F
:1017D00016E0274B1B78002B0FD01A4B1B78002BE1
:1017E00003D1194B1B78002B03D0C020FFF70EFC50
:1017F00006E0C220FFF70AFC02E0C220FFF706FC69
:1018000001F062FE02461B4B1B68D31A41F287327D
:10181000934240F2B48201F057FE0346154A13602A
:10182000154B00221A800F4B1B78002B26D0FFF798
:10183000DBFBA4E268030020B80300203908002085
:101840000004004837080020380800200500002068
:101850003A080020000096C30000C8C200004843B8
:10186000000070423608002000005C42350800206D
:10187000340800203C0800202C080020FFF7F2FB71
:101880000346012B40F03481AD4B1B78002B04D074
:10189000AC4B1B78002B40F02B81002387F8D7310D
:1018A000002387F8D6310023A7F8D4310023C7F8E6
:1018B000D0313FE007F5F873A3F59072D7F8D03137
:1018C0009B001344D3ED007A9FED9F7AF4EEC77A24
:1018D000F1EE10FA29DD0122D7F8D03102FA03F334
:1018E0001AB2B7F9D43113431BB2A7F8D431D7F8E1
:1018F000D031042B0CDC0122D7F8D03102FA03F3EB
:101900005AB297F9D73113435BB287F8D7310CE05D
:10191000D7F8D031053B012202FA03F35AB297F906
:10192000D63113435BB287F8D631D7F8D0310133C3
:10193000C7F8D031D7F8D031092BBBDDB7F8D43197
:10194000002B02D1FFF750FB19E2B7F8D42140F287
:1019500055131340002B14BF01230023DBB287F87B
:10196000A531B7F8D42140F2AA231340002B14BFAD
:1019700001230023DBB287F8A43197F8A531002BAF
:1019800037D097F8A431002B33D001F09DFD0246EB
:101990006E4B1B68D31A41F2873293420BD96C4BC2
:1019A0001B7883F00103DAB2694B1A7001F08CFDE9
:1019B0000346664A1360664B1B78002B0CD197F8E0
:1019C000D73103F0150387F8D73197F8D63103F0F4
:1019D0000A0387F8D6313DE097F8D73103F00A03C0
:1019E00087F8D73197F8D63103F0150387F8D63149
:1019F00030E097F8A531002B18D097F8A431002BD0
:101A000014D197F8D73103F0150387F8D73197F839
:101A1000D63103F00A0387F8D6314D4B01221A70F4
:101A200001F052FD0346494A136013E097F8D7319D
:101A300003F00A0387F8D73197F8D63103F015037E
:101A400087F8D631424B00221A7001F03DFD034663
:101A50003E4A13603F4B00221A800023C7F8CC3166
:101A600035E097F8D721D7F8CC3142FA03F303F0E9
:101A70000103002B0DD00122D7F8CC3102FA03F379
:101A80001AB2344B1B881BB213431BB29AB2314BB0
:101A90001A8097F8D621D7F8CC3142FA03F303F035
:101AA0000103002B0ED0D7F8CC310533012202FA06
:101AB00003F31AB2274B1B881BB213431BB29AB213
:101AC000244B1A80D7F8CC310133C7F8CC31D7F882
:101AD000CC31042BC5DD97F8D73119460120FFF72B
:101AE000ABF997F8D63119460220FFF7A5F946E180
:101AF000134B1B78002B00F04081124B1B78002BFE
:101B000000F03B8101F0E0FC0246104B1B68D31A49
:101B100041F2873293420BD90D4B1B7883F00103BE
:101B2000DAB20B4B1A7001F0CFFC0346074A136080
:101B3000094BC7F8C8310023C7F8C43140E000BFE3
:101B40002B0800202E08002033337340300800207B
:101B50002F0800202C0800200000C64207F5F8736B
:101B6000A3F59072D7F8C4319B001344D3ED007AEB
:101B7000B6EE007AF4EEC77AF1EE10FA1BDD07F547
:101B8000F873A3F59072D7F8C4319B001344D3EDDA
:101B9000007A97ED727AB4EEE77AF1EE10FA0ADD88
:101BA00007F5F873A3F59072D7F8C4319B0013447E
:101BB0001B68C7F8C831D7F8C4310133C7F8C4313E
:101BC000D7F8C431092BC9DDA14B1B8807EE903A29
:101BD000B8EE677ADFED9F6AC7EE267AC7ED687ABE
:101BE000002387F8C331002387F8C231D7ED727A1A
:101BF0009FED997AF4EEC77AF1EE10FA52D50023F0
:101C0000C7F8BC314AE007F5F873A3F59072D7F82E
:101C1000BC319B001344D3ED007AB6EE007AF4EEAB
:101C2000C77AF1EE10FA33D407F5F873A3F5907282
:101C3000D7F8BC319B00134493ED007AD7ED727A4C
:101C400077EE677A97ED687AB4EEE77AF1EE10FAFC
:101C50001FD5D7F8BC31042B0CDC0122D7F8BC31DE
:101C600002FA03F35AB297F9C33113435BB287F810
:101C7000C3310EE0D7F8BC31053B012202FA03F371
:101C80005AB297F9C23113435BB287F8C23100E010
:101C900000BFD7F8BC310133C7F8BC31D7F8BC312D
:101CA000092BB0DD6D4B1B78002B0CD197F8C3319D
:101CB00003F0150387F8C33197F8C23103F00A0324
:101CC00087F8C2310BE097F8C33103F00A0387F8B5
:101CD000C33197F8C23103F0150387F8C231604B66
:101CE00000221A800023C7F8B83135E097F8C321E5
:101CF000D7F8B83142FA03F303F00103002B0DD0FB
:101D00000122D7F8B83102FA03F31AB2544B1B88F8
:101D10001BB213431BB29AB2514B1A8097F8C221DF
:101D2000D7F8B83142FA03F303F00103002B0ED0C9
:101D3000D7F8B8310533012202FA03F31AB2484B3F
:101D40001B881BB213431BB29AB2454B1A80D7F8BB
:101D5000B8310133C7F8B831D7F8B831042BC5DD35
:101D600097F8C33119460120FFF766F897F8C2319A
:101D700019460220FFF760F801E0FFF735F9394B0B
:101D80001B78002B74D0D7F82031C7F8B03101236D
:101D9000C7F8AC3122E0D7F8AC319B0003F5907363
:101DA00007F1D0021344D03BD3ED007A97ED6C7A63
:101DB000B4EEE77AF1EE10FA0BD5D7F8AC319B0010
:101DC00003F5907307F1D0021344D03B1B68C7F8AA
:101DD000B031D7F8AC310133C7F8AC31D7F8AC31FA
:101DE000092BD8DDD7ED6C7AB3EE097AF4EEC77A19
:101DF000F1EE10FA03D8002387F8B7313CE0D7EDB5
:101E00006C7A9FED197AF4EEC77AF1EE10FA03DBE3
:101E1000642387F8B7312FE0D7ED6C7AB3EE097AF7
:101E200077EEC77A9FED117A27EE877AF3EE046A90
:101E3000C7EE267AB3EE047A77EE877AFCEEE77A7D
:101E4000C7ED327A97F8C83087F8B73114E000BF91
:101E50000200002000007A440000C4422F08002045
:101E60002C08002000000020000034420000A042A6
:101E7000AE4B1B7887F8B73197F8B731184600F0AA
:101E8000D3FE00F053FF0346A94A1360A84B1B681A
:101E9000002B0FD197F8B731002B0BD097F8B73143
:101EA00040F68C2202FB03F3A24AA2FB03235B0948
:101EB0009F4A136007F5F873A3F590731B681846E3
:101EC000FEF752FBC7E9320107F5F873A3F59073EB
:101ED0005B681846FEF748FBC7E9300107F5F87361
:101EE000A3F590739B681846FEF73EFBC7E92E01E9
:101EF00007F5F873A3F59073DB681846FEF734FB1B
:101F0000C7E92C0107F5F873A3F590731B69184610
:101F1000FEF72AFBC7E92A0107F5F873A3F59073CA
:101F20005B691846FEF720FBC7E9280107F5F8733F
:101F3000A3F590739B691846FEF716FBC7E92601C7
:101F400007F5F873A3F59073DB691846FEF70CFBF1
:101F5000C7E9240107F5F873A3F590731B6A1846C7
:101F6000FEF702FBC7E9220107F5F873A3F59073AA
:101F70005B6A1846FEF7F8FAC7E92001D7F8203166
:101F80001846FEF7F1FAC7E91E01D7F824311846C2
:101F9000FEF7EAFAC7E91C01D7F828311846FEF720
:101FA000E3FAC7E91A01D7F82C311846FEF7DCFA34
:101FB000C7E91801D7F830311846FEF7D5FAC7E956
:101FC0001601D7F834311846FEF7CEFAC7E91401E6
:101FD000D7F838311846FEF7C7FAC7E91201D7F823
:101FE0003C311846FEF7C0FAC7E91001D7F8403176
:101FF0001846FEF7B9FAC7E90E01D7F8443118467A
:10200000FEF7B2FA82468B46D7F8A801FEF7ACFA83
:1020100080468946464B1B687B63474B1B783B6376
:1020200097F8B721FA6297F86031BB6297F85C3194
:102030007B62FFF717F803461846FFF74FF8386240
:10204000FFF734F80346FB61FFF73CF80346BB613A
:102050003A4B1B787B613A4B1B78002B0CBF01235A
:102060000023DBB23B61374B1B78FB60344B1B78A2
:10207000BB60344B1B787B60334B1B783B60334B2E
:102080001B881E46324B1B881D46324B1B781C4654
:10209000FEF7E8FF0346012B0CBF01230023DBB250
:1020A0003B933A94399538963968379179683691E7
:1020B000B9683591F9683491396933917969329108
:1020C000B9693191F9693091396A2F91796A2E9104
:1020D000B96A2D91FA6A2C923A6B2B927B6B2A93F8
:1020E000CDE92889CDE926AB97ED0E7B8DED247BDC
:1020F00097ED107B8DED227B97ED127B8DED207B94
:1021000097ED147B8DED1E7B97ED167B8DED1C7B83
:1021100097ED187B8DED1A7B97ED1A7B8DED187B73
:1021200097ED1C7B8DED167B16E000BF2A08002082
:10213000140800201F85EB51000000203608002005
:1021400037080020380800202B080020020000205B
:102150002C0800202E08002097ED1E7B8DED147BAF
:1021600097ED207B8DED127B97ED227B8DED107B23
:1021700097ED247B8DED0E7B97ED267B8DED0C7B13
:1021800097ED287B8DED0A7B97ED2A7B8DED087B03
:1021900097ED2C7B8DED067B97ED2E7B8DED047BF3
:1021A00097ED307B8DED027B97ED327B8DED007BE3
:1021B0001A4A4FF420711A480DF0DEFEC7F89C0150
:1021C000D7F89C319BB2194615480CF00FFD4FF41F
:1021D0000061144802F022FF01F076F9C7F8980177
:1021E0000DE0114B1B78DBB2002B05D00F4800F03F
:1021F0009FFB0D4B00221A700A2001F071F901F0CB
:1022000063F90246D7F89831D31AB3F5FA7FE8D3C9
:10221000FFF754B800BFFFF751B800BF30250108E1
:102220007C05002000080048980B0020580B002077
:1022300080B59EB000AF07F1500328220021184658
:102240000DF014FF07F13C0300221A605A609A60F7
:10225000DA601A613B463C22002118460DF006FF69
:1022600003233B654FF480337B650423BB65012367
:102270003B6610237B660223FB664FF480333B678B
:102280004FF4C0137B6707F15003184605F068FA56
:102290000346002B01D000F01BFE0F23FB6302233B
:1022A0003B6400237B644FF48063BB640023FB64C6
:1022B00007F13C030121184606F060FA0346002BA3
:1022C00001D000F005FE0E4B3B604FF480737B6243
:1022D0000023FB614FF48003BB633B46184606F0C6
:1022E00043FC0346002B01D000F0F2FD00224FF02A
:1022F000C061002006F0B0FB00BF7837BD4680BD4E
:10230000A000020080B58AB000AF07F11C030022D4
:102310001A605A609A603B1D00221A605A609A60E7
:10232000DA601A615A614A4B4FF0A0421A60484B7A
:1023300000225A60464B00229A60454B01221A61E6
:10234000434B01225A76424B002283F82020404B17
:102350000022DA623E4B01229A623D4B0022DA6093
:102360003B4B0522DA613A4B002283F83020384B90
:1023700004225A61364B00221A76354B00225A63EA
:10238000334801F0D1F80346002B01D000F0A0FD46
:102390000023FB6107F11C0319462D4801F0EAFFF9
:1023A0000346002B01D000F093FD01237B60012345
:1023B000BB6000233B610023FB6000237B610023A3
:1023C000BB613B1D1946224801F0EAFC0346002B85
:1023D00001D000F07DFD02237B600223BB603B1D2A
:1023E00019461B4801F0DCFC0346002B01D000F02D
:1023F0006FFD03237B600323BB603B1D194614481C
:1024000001F0CEFC0346002B01D000F061FD042357
:102410007B600423BB603B1D19460D4801F0C0FCE6
:102420000346002B01D000F053FD05237B600523FC
:10243000BB603B1D1946064801F0B2FC0346002B69
:1024400001D000F045FD00BF2837BD4680BD00BF6C
:102450006803002080B586B000AF3B4600221A60BA
:102460005A609A60DA601A615A61434B434A1A60B3
:10247000414B00225A60404B00229A603E4B0122A1
:102480001A613D4B01225A763B4B002283F82020F3
:10249000394B0022DA62384B01229A62364B002215
:1024A000DA60354B0522DA61334B002283F83020A5
:1024B000314B04225A61304B00221A762E4B0022F7
:1024C0005A632D4801F030F80346002B01D000F08C
:1024D000FFFC01233B6001237B600023FB600023A2
:1024E000BB6000233B6100237B613B4619462248C9
:1024F00001F056FC0346002B01D000F0E9FC02235A
:102500003B6002237B603B4619461B4801F048FCB8
:102510000346002B01D000F0DBFC03233B600323C8
:102520007B603B461946144801F03AFC0346002BF9
:1025300001D000F0CDFC04233B6004237B603B46CC
:1025400019460D4801F02CFC0346002B01D000F089
:10255000BFFC05233B6005237B603B4619460648CC
:1025600001F01EFC0346002B01D000F0B1FC00BFBF
:102570001837BD4680BD00BFB803002000010050E1
:1025800080B500AF1B4B1C4A1A601A4B1B4A5A609D
:10259000184B00229A60174B0122DA60154B00227B
:1025A0001A61144B00225A61124B00229A61114B9E
:1025B0000022DA610F4B00221A620E4802F048FD39
:1025C0000346002B01D000F083FC0021094803F0F2
:1025D00067FB0346002B01D000F07AFC0021054880
:1025E00003F0A9FB0346002B01D000F071FC00BFF3
:1025F00080BD00BF90040020005400402B1D20002F
:1026000080B58CB000AF07F1200300221A605A6039
:102610009A60DA6007F1140300221A605A609A6027
:102620003B1D00221A605A609A60DA602B4B2C4ADC
:102630001A602A4B2F225A60284B00229A60274B9F
:102640004FF6FF72DA60254B00221A61234B0022FD
:102650009A61224806F036FC0346002B01D000F0B8
:1026600037FC4FF480533B6207F1200319461B48A7
:1026700007F036FA0346002B01D000F029FC17487A
:1026800006F0D8FD0346002B01D000F021FC00230A
:102690007B610023FB6107F1140319460F4808F022
:1026A0009BF80346002B01D000F012FC02237B6054
:1026B0000123BB600023FB600F233B613B1D002215
:1026C0001946064807F05CF80346002B01D000F0DD
:1026D000FFFB00BF3037BD4680BD00BFE4040020D3
:1026E0000004004080B592B000AF07F12C03002237
:1026F0001A605A609A60DA601A615A619A613B46C0
:102700002C22002118460DF0B1FC314B314A1A60E1
:102710002F4B2F225A602E4B00229A602C4B40F2F6
:10272000E732DA602A4B00221A61294B00225A61F3
:10273000274B80229A61264806F0C4FB0346002BF3
:1027400001D000F0C5FB224806F013FC0346002B25
:1027500001D000F0BDFB6023FB6200233B6300233C
:102760007B630023BB630023FB6300233B640023E4
:102770007B6407F12C0300221946154807F09CF8EA
:102780000346002B01D000F0A3FB00233B60002395
:102790007B600023BB600023FB6000233B614FF4A0
:1027A00000537B610023BB610023BB623B4619469B
:1027B000074808F091F80346002B01D000F088FB91
:1027C000034800F07BFD00BF4837BD4680BD00BF19
:1027D000300500200048014080B582B000AF164BA4
:1027E0005B69154A43F001035361134B5B6903F0C6
:1027F00001037B607B68104B5B690F4A43F0020367
:1028000053610D4B5B6903F002033B603B680022A0
:1028100001210B2002F0FBF80B2002F014F900223A
:102820000121382002F0F3F8382002F00CF900BF43
:102830000837BD4680BD00BF0010024080B58AB099
:1028400000AF07F1140300221A605A609A60DA6040
:102850001A61344B5B69334A43F480035361314B53
:102860005B6903F480033B613B692E4B5B692D4A36
:1028700043F4002353612B4B5B6903F40023FB609B
:10288000FB68284B5B69274A43F400335361254BAF
:102890005B6903F40033BB60BB68224B5B69214A70
:1028A00043F4802353611F4B5B6903F480237B60F7
:1028B0007B68002240F604011B4802F097FB40F6BB
:1028C00004037B610123BB610023FB6100233B62A6
:1028D00007F114031946144802F0F6F94FF4807317
:1028E0007B610223BB610023FB6100233B62002369
:1028F0007B6207F1140319464FF0904002F0E4F9AF
:102900004FF440637B610023BB610023FB6107F14F
:1029100014031946054802F0D7F900BF2837BD4611
:1029200080BD00BF001002400008004800040048BD
:1029300080B584B000AF78609C497868FDF748FCAA
:102940000346002B03D19A4B01221A702BE19949BF
:102950007868FDF73DFC0346002B03D1944B002221
:102960001A7020E10822944978680DF087FB03462D
:10297000002B1ED17B68083318460CF055FDF8601B
:10298000FB68002B01DA0023FB60FB68642B01DD90
:102990006423FB60FB68DAB2884B1A70844B1B78A7
:1029A000002B40F0FD80854B1B78184600F03CF969
:1029B000F6E083497868FDF70BFC0346002B04D151
:1029C0007F210020FEF738FAEDE07E497868FDF7B8
:1029D000FFFB0346002B0DD1012210217A4802F0A3
:1029E00005FB0A2000F07CFD00221021764802F051
:1029F000FDFAD8E075497868FDF7EAFB0346002B3D
:102A000008D1734B00221A70724B00221A70FEF725
:102A1000EBFAC8E070497868FDF7DAFB0346002B53
:102A20000ED16B4B01221A706A4B01221A706B4B4C
:102A300000221A7000F048FD0346694A1360B2E0B4
:102A400068497868FDF7C4FB0346002B08D1614B49
:102A500000221A705E4B00221A70FEF7C5FAA2E03F
:102A60000F22614978680DF009FB0346002B12D153
:102A70007B680F3318460CF0D7FCB860BB68042B9A
:102A800040F39080BB68642B00F38C80BB689AB2E3
:102A9000564B1A8086E056497868FDF799FB034645
:102AA000002B09D1534B01221A70534B00221A708C
:102AB000524B00221A7076E051497868FDF788FB86
:102AC0000346002B06D04F497868FDF781FB03468B
:102AD000002B0ED1474B00221A70474B00221A7070
:102AE000464B00221A70FEF77FFAC020FEF78EFADE
:102AF00059E045497868FDF76BFB0346002B11D17F
:102B00003D4B01221A703D4B00221A70304B0022BF
:102B10001A70304B00221A70FEF766FAC020FEF7DA
:102B200075FA40E039497868FDF752FB0346002BFF
:102B300003D1374B00221A7035E036497868FDF72B
:102B400047FB0346002B03D1314B01221A702AE0C8
:102B50001022314978680DF091FA0346002B0BD111
:102B60007B6810331B78312B0CBF01230023DBB2B1
:102B70001A462A4B1A7016E01522294978680DF07A
:102B80007DFA0346002B0ED17B6815331B78312B61
:102B90000CBF01230023DBB21A46224B1A7002E05D
:102BA00000BF00E000BF1037BD4680BD4C270108C4
:102BB0000000002058270108642701082A08002087
:102BC00070270108842701080004004894270108A1
:102BD0002B0800202E080020A02701082F08002025
:102BE00030080020B0270108C0270108020000209B
:102BF000D0270108340800203508002036080020BE
:102C0000E0270108F4270108042801081428010816
:102C100039080020282801083C2801080500002068
:102C2000502801083A08002080B592B000AF034652
:102C3000FB71FB79642B01D96423FB71FB7940F2B2
:102C4000E73202FB03F3354AA2FB03235B099AB286
:102C5000334B1A80FB79642B1DD107F1340300221A
:102C60001A605A609A60DA601A614FF400737B63ED
:102C70000123BB630023FB6300233B6407F13403A0
:102C80001946284802F020F801224FF40071254827
:102C900002F0ACF93EE0FB79002B1DD107F12003D7
:102CA00000221A605A609A60DA601A614FF4007369
:102CB0003B6201237B620023BB620023FB6207F1BE
:102CC00020031946174801F0FFFF00224FF400715E
:102CD000144802F08BF91DE007F10C0300221A6082
:102CE0005A609A60DA601A614FF40073FB60022345
:102CF0003B6100237B610023BB610123FB6107F182
:102D00000C031946074801F0DFFF054B1A88064BF4
:102D10001B685A6300BF4837BD4680BD1F85EB5115
:102D200012080020000400483005002080B584B05F
:102D300000AF00F0C9FB0246344B1B68D31AB3F551
:102D4000FA6F07D9324B00221A70324B00221A70E8
:102D5000002357E0304B1B68002B01D1002351E0CA
:102D60002D4B1B685B002D4AB2FBF3F37B607B6845
:102D700043F69822934201D9002343E0254B1B7868
:102D80001946274A7B6842F82130224B1B780133D1
:102D90005A4203F0030302F0030258BF5342DAB26F
:102DA0001C4B1A701A4B1B78002B06D1194B1B7841
:102DB000002B02D1164B01221A70154B1B78002BE9
:102DC00002D1144B1B7800E00423FB70FB78002B2E
:102DD00001D17B6816E00023FB600023FB7209E051
:102DE000FB7A0F4A52F82330FA681344FB60FB7AEF
:102DF0000133FB72FA7AFB789A42F1D3FB78FA68D6
:102E0000B2FBF3F318461037BD4680BD0C08002016
:102E100029080020280800200408002000879303C8
:102E20001808002080B483B000AF78607B681B680E
:102E3000074A934206D1074B1B889BB201339AB2D3
:102E4000044B1A8000BF0C37BD465DF8047B704709
:102E5000000400401008002080B584B000AF786006
:102E60007B681B68144A934221D17B681B7F012B2E
:102E70001DD10021786806F0FDFEF8600F4B1B881D
:102E80009BB21A04FB681A440D4B1B68D31A0D4AF7
:102E900013600A4B00221A80094AFB6813600A4B30
:102EA00001221A7000F010FB0346084A136000BFAD
:102EB0001037BD4680BD00BF000400401008002050
:102EC0000008002004080020080800200C0800204A
:102ED00080B400AF72B600BF00BFFDE780B483B01E
:102EE00000AF0F4B9B690E4A43F0010393610C4BFB
:102EF0009B6903F001037B607B68094BDB69084A2F
:102F000043F08053D361064BDB6903F080533B6091
:102F10003B6800BF0C37BD465DF8047B704700BFBF
:102F20000010024080B58EB000AF786007F1240336
:102F300000221A605A609A60DA601A617B681B6826
:102F4000B3F1A04F6ED1734B1B680133714A13600C
:102F5000704B1B68012B0BD16F4B5B696E4A43F0C2
:102F6000805353616C4B5B6903F080533B623B6A57
:102F7000694B5B69684A43F400335361664B5B6994
:102F800003F40033FB61FB69634B5B69624A43F402
:102F900080035361604B5B6903F48003BB61BB69D1
:102FA0000F237B620323BB620023FB6207F1240330
:102FB00019464FF0904001F087FE10237B620323F7
:102FC000BB620023FB6207F124031946534801F05A
:102FD0007BFE534B534A1A60514B00225A60504BB0
:102FE00000229A604E4B8022DA604D4B4FF4807283
:102FF0001A614B4B4FF480625A61494B20229A610F
:10300000474B0022DA61464801F037FD0346002BAA
:1030100001D0FFF75DFF7B68414A9A63404A7B68B5
:10302000536272E07B681B683F4A93426DD1394B13
:103030001B680133374A1360364B1B68012B0BD1D9
:10304000354B5B69344A43F080535361324B5B69C3
:1030500003F080537B617B692F4B5B692E4A43F4FD
:10306000003353612C4B5B6903F400333B613B69D4
:10307000294B5B69284A43F400235361264B5B6963
:1030800003F40023FB60FB68F0237B620323BB6235
:103090000023FB6207F1240319464FF0904001F032
:1030A00013FE10237B620323BB620023FB6207F144
:1030B000240319461D4801F007FE1D4B1D4A1A60E6
:1030C0001B4B00225A601A4B00229A60184B802238
:1030D000DA60174B4FF480721A61154B4FF480621F
:1030E0005A61134B20229A61114B0022DA61104879
:1030F00001F0C3FC0346002B01D0FFF7E9FE7B681B
:103100000B4A9A630A4A7B68536200BF3837BD4650
:1031100080BD00BF4008002000100240001400489D
:103120000804002008000240000100500008004888
:103130004C0400200804024080B58AB000AF7860DB
:1031400007F1140300221A605A609A60DA601A616B
:103150007B681B68264A934245D1264B5B69254A0A
:1031600043F400335361234B5B6903F400333B6149
:103170003B69204B5B691F4A43F4802353611D4B1D
:103180005B6903F48023FB60FB684FF400437B61C1
:103190001223BB610023FB6103233B6204237B6298
:1031A00007F1140319464FF0904001F08DFD802384
:1031B0007B611223BB610023FB6103233B62042379
:1031C0007B6207F1140319460B4801F07DFD094BA2
:1031D000DB69084A43F40013D361064BDB6903F44F
:1031E0000013BB60BB6800BF2837BD4680BD00BF71
:1031F00000540040001002400004004880B58AB02E
:1032000000AF786007F1140300221A605A609A60D8
:10321000DA601A617B681B68244A934230D1244BE0
:10322000DB69234A43F00203D361214BDB6903F0DE
:1032300002033B613B691E4B5B691D4A43F400235B
:1032400053611B4B5B6903F40023FB60FB68402365
:103250007B610223BB610023FB6100233B620223ED
:103260007B6207F114031946124801F02DFD00227C
:1032700000211D2001F0CBFB1D2001F0E4FB10E03C
:103280007B681B680C4A93420BD1094B9B69084A27
:1032900043F480239361064B9B6903F48023BB6056
:1032A000BB6800BF2837BD4680BD00BF000400409A
:1032B00000100240000800480048014080B588B076
:1032C00000AF786007F10C0300221A605A609A6020
:1032D000DA601A617B681B68114A93421CD1114B5A
:1032E0005B69104A43F4802353610E4B5B6903F41E
:1032F0008023BB60BB684FF40073FB6002233B611B
:1033000000237B610023BB610123FB6107F10C03F8
:103310001946054801F0D8FC00BF2037BD4680BDE6
:1033200000480140001002400004004880B400AF93
:1033300000BFFDE780B400AF00BFFDE780B400AF81
:1033400000BFFDE780B400AF00BFFDE780B400AF71
:1033500000BFFDE780B400AF00BFBD465DF8047B51
:10336000704780B400AF00BFBD465DF8047B704776
:1033700080B400AF00BFBD465DF8047B704780B5E8
:1033800000AF00F08DF800BF80BD000080B500AF39
:10339000024801F0B9FB00BF80BD00BF0804002057
:1033A00080B500AF024802F0FFFD00BF80BD00BF46
:1033B0009C15002080B500AF024802F0F5FD00BF6B
:1033C00080BD00BF9C15002080B500AF024806F00C
:1033D000D5F800BF80BD00BFE404002080B500AF79
:1033E000024801F091FB00BF80BD00BF4C040020EB
:1033F00080B400AF064BD3F88830054A43F470031D
:10340000C2F8883000BFBD465DF8047B704700BF3E
:1034100000ED00E080B500AF084B1B68074A43F0A1
:1034200010031360032001F0E7FA0F2000F008F802
:10343000FFF754FD0023184680BD00BF0020024066
:1034400080B582B000AF7860124B1A68124B1B78BF
:1034500019464FF47A73B3FBF1F3B2FBF3F318465A
:1034600001F0FFFA0346002B01D001230EE07B6838
:103470000F2B0AD8002279684FF0FF3001F0C7FA0D
:10348000064A7B681360002300E0012318460837D2
:10349000BD4680BD08000020100000200C00002068
:1034A00080B400AF064B1B781A46064B1B681344CA
:1034B000044A136000BFBD465DF8047B704700BF3F
:1034C000100000204408002080B400AF034B1B68AC
:1034D0001846BD465DF8047B704700BF44080020D5
:1034E00080B584B000AF7860FFF7EEFFB8607B680E
:1034F000FB60FB68B3F1FF3F05D00A4B1B781A460F
:10350000FB681344FB6000BFFFF7DEFF0246BB68A9
:10351000D31AFA689A42F7D800BF00BF1037BD46E9
:1035200080BD00BF1000002080B59AB000AF786069
:10353000002387F8673000233B660023BB607B686D
:10354000002B01D10123C9E17B681B69002B7B683B
:103550001B6C03F01003002B76D17B681B6C002BD7
:1035600052D17B6800225A647B680022DA647B684F
:1035700000229A647B68002283F83C207868FFF779
:10358000D1FC7B681B689B6803F08053002B3BD108
:10359000786801F045F8034687F867307B681B6C54
:1035A00003F01003002B2FD197F86730002B2BD19D
:1035B0007B681B6C23F4885323F0020343F0020260
:1035C0007B681A647B681B689A687B681B6822F0BA
:1035D00040529A607B681B689A687B681B6842F05F
:1035E00080529A60864B1B68864AA2FB03239A0C82
:1035F00013469B0013445B00BB6002E0BB68013BC9
:10360000BB60BB68002BF9D17B681B689B6803F02B
:103610008053002B07D07B681B689B6803F0005326
:10362000B3F1005F10D17B681B6C23F0120343F0F1
:1036300010027B681A647B685B6C43F001027B6854
:103640005A64012387F867307B681B6C03F0100312
:10365000002B40F0368197F86730002B40F0318125
:103660007B681B689B6803F00403002B40F02981F2
:103670007B681B6C23F4817343F002027B681A643D
:103680007B681B68B3F1A04F04D07B681B685E4A5F
:10369000934201D15D4B00E05D4BFB657B681B688D
:1036A000B3F1A04F02D1584BFB601AE07B681B6856
:1036B000554A934203D14FF0A043FB6011E07B6871
:1036C0001B68544A934202D1534BFB6009E07B686C
:1036D0001B68514A934202D14E4BFB6001E000232C
:1036E000FB607B681B689B6803F00303012B08D118
:1036F0007B681B681B6803F00103012B01D10123C8
:1037000000E00023002B1CD1FB68002B10D0FB68CD
:103710009B6803F00303012B07D1FB681B6803F0D0
:103720000103012B01D1012300E00023002B08D16C
:10373000FB6D9B6823F440327B685B681A43FB6D2A
:103740009A607B685B7E5B037A68526B012A02D0C9
:103750004FF4805200E000221A437B68DB681A4372
:103760007B689B6813433A6E13433B667B6893F810
:103770002030012B1BD17B685B7E002B09D17B683D
:103780005B6A013B5A043B6E134343F480333B6650
:103790000DE07B681B6C23F0220343F020027B6862
:1037A0001A647B685B6C43F001027B685A647B6837
:1037B0009B6A012B3AD07B681B68164A934204D05F
:1037C0007B681B68144A934228D17B689B6AB3F5D7
:1037D000307F12D07B689B6AB3F5807F0AD07B680C
:1037E0009B6AB3F5E07F02D07B689B6A18E04FF4D8
:1037F000807315E04FF4307312E04FF4E0730FE084
:103800000800002083DE1B4300010050000300502D
:103810000007005000040050000500507B689B6AC0
:103820007A68D26A13433A6E13433B667B681B681F
:103830009B6803F00C03002B14D17B681B68DB68CA
:103840007A68126823F4804323F00203D3607B6814
:103850001B7E9A037B6893F830305B0013433A6E0B
:1038600013433B667B681B68DA681E4B13407A681B
:103870001268396E0B43D3607B681B69012B0CD136
:103880007B681B681B6B23F00F017B68DB695A1E8A
:103890007B681B680A431A6307E07B681B681A6B26
:1038A0007B681B6822F00F021A637B6800225A644F
:1038B0007B681B6C23F0030343F001027B681A64EE
:1038C0000AE07B681B6C23F0120343F010027B6854
:1038D0001A64012387F8673097F86730184668370D
:1038E000BD4680BD07C0F0FF80B584B000AF7860F2
:1038F0000023FB737B681B689B6803F00403002BA9
:1039000040F0F9807B6893F83C30012B01D1022311
:10391000F4E07B68012283F83C20786800F01CFE0C
:103920000346FB73FB7B002B40F0E0807B681B6C45
:1039300023F4706323F0010343F480727B681A64FC
:103940007B681B68B3F1A04F04D07B681B686D4A8D
:10395000934206D16C4B9B6803F01F03002B10D0E1
:1039600005E06A4B9B6803F01F03002B09D07B68BE
:103970001B68B3F1A04F04D07B681B68644A934274
:1039800015D17B681B6C23F480127B681A647B68FA
:103990001B68DB6803F00073002B36D07B681B6C60
:1039A00023F4405343F480527B681A642DE07B6813
:1039B0001B6C43F480127B681A647B681B68B3F14C
:1039C000A04F04D07B681B684E4A93420AD14FF047
:1039D000A043DB6803F00073002B14BF0123002316
:1039E000DBB208E04A4BDB6803F00073002B14BF26
:1039F00001230023DBB2002B07D07B681B6C23F470
:103A0000405343F480527B681A647B681B6C03F458
:103A10008053B3F5805F06D17B685B6C23F00602B0
:103A20007B685A6402E07B6800225A647B6800224B
:103A300083F83C207B681B681C221A607B681B682B
:103A4000B3F1A04F04D07B681B682E4A934206D185
:103A50002D4B9B6803F01F03002B3ED005E02B4B42
:103A60009B6803F01F03002B37D07B681B68B3F102
:103A7000A04F04D07B681B68224A934206D1224B98
:103A80009B6803F01F03052B27D005E01F4B9B68A5
:103A900003F01F03052B20D07B681B68B3F1A04FF8
:103AA00004D07B681B68174A934206D1164B9B686B
:103AB00003F01F03092B10D005E0144B9B6803F0A3
:103AC0001F03092B09D07B681B68B3F1A04F04D0FA
:103AD0007B681B680E4A93420FD17B681B689A680B
:103AE0007B681B6842F004029A6006E07B68002253
:103AF00083F83C2001E00223FB73FB7B1846103760
:103B0000BD4680BD0001005000030050000700507A
:103B10000004005080B584B000AF78600023FB73D0
:103B20007B6893F83C30012B01D1022323E07B68B2
:103B3000012283F83C206C21786800F0D7FD034611
:103B4000FB73FB7B002B11D1786800F069FD034605
:103B5000FB73FB7B002B09D17B681B6C23F4885320
:103B600023F0010343F001027B681A647B680022A2
:103B700083F83C20FB7B18461037BD4680BD000013
:103B800080B586B000AF7860396000233B617B6808
:103B90005B69082B02D108237B613AE07B681B68D4
:103BA000B3F1A04F04D07B681B68724A934201D1E5
:103BB000714B00E0714BFB60FB689B6803F01F03D7
:103BC000002B12D17B681B68DB6803F00103012B1B
:103BD0001DD17B681B6C43F020027B681A647B68F4
:103BE000002283F83C200123BFE0FB689B6803F4BC
:103BF0004043002B0BD07B681B6C43F020027B689A
:103C00001A647B68002283F83C200123ADE00C237A
:103C10007B617B681B68B3F1A04F04D07B681B6895
:103C2000544A934206D1544B9B6803F01F03002B68
:103C300010D005E0514B9B6803F01F03002B09D007
:103C40007B681B68B3F1A04F04D07B681B684C4AAB
:103C5000934204D17B681B68DB683B610FE07B68A3
:103C60001B68B3F1A04F04D07B681B68414A9342A4
:103C700002D14FF0A04300E0414BDB683B61FFF70E
:103C800023FCB86021E03B68B3F1FF3F1DD03B68E7
:103C9000002B07D0FFF718FC0246BB68D31A3A681E
:103CA0009A4212D27B681B681A687B691340002B0A
:103CB0000BD17B681B6C43F004027B681A647B6841
:103CC000002283F83C2003234FE07B681B681A68BE
:103CD0007B691340002BD6D07B681B6C43F40072C9
:103CE0007B681A647B681B68DB6803F44063002B05
:103CF00031D13B6903F40053002B2CD17B681B6846
:103D00001B6803F00803082B25D17B681B689B68A0
:103D100003F00403002B12D17B681B6C23F4807228
:103D20007B681A647B681B6C03F48053002B12D1F0
:103D30007B681B6C43F001027B681A640BE07B68B4
:103D40001B6C43F020027B681A647B685B6C43F059
:103D500001027B685A643B6903F48043002B03D162
:103D60007B681B687A691A60002318461837BD46BD
:103D700080BD00BF0001005000030050000700504C
:103D80000004005080B483B000AF78607B681B688B
:103D90001B6C18460C37BD465DF8047B704700006D
:103DA00080B49BB000AF78603960002387F867303B
:103DB0000023BB607B6893F83C30012B01D10223C8
:103DC000C8E27B68012283F83C207B681B689B6803
:103DD00003F00403002B40F0AC823B685B68042BCB
:103DE0001CD87B681B68196B3B685A6813465B00DC
:103DF00013445B001A461F239340DB4319403B6882
:103E000018683B685A6813465B0013445B0000FA6D
:103E100003F27B681B680A431A6363E03B685B68D4
:103E2000092B1ED87B681B68596B3B685A68134680
:103E30005B0013445B001E3B1F2202FA03F3DB43CB
:103E400019403B6818683B685A6813465B00134486
:103E50005B001E3B00FA03F27B681B680A435A634F
:103E600040E03B685B680E2B1ED87B681B68996B33
:103E70003B685A6813465B0013445B003C3B1F22BF
:103E800002FA03F3DB4319403B6818683B685A6841
:103E900013465B0013445B003C3B00FA03F27B6873
:103EA0001B680A439A631DE07B681B68D96B3B68FB
:103EB0005A6813465B0013445B005A3B1F2202FA08
:103EC00003F3DB4319403B6818683B685A681346A4
:103ED0005B0013445B005A3B00FA03F27B681B68EB
:103EE0000A43DA637B681B689B6803F00C03002BB2
:103EF00040F0E5803B681B68092B1CD97B681B6878
:103F000099693B681A6813465B0013441E3B0722FD
:103F100002FA03F3DB4319403B6898683B681A6870
:103F200013465B0013441E3B00FA03F27B681B68D8
:103F30000A439A6119E07B681B6859693B681A68F3
:103F400013465B001344072202FA03F3DB431940D4
:103F50003B6898683B681A6813465B00134400FA94
:103F600003F27B681B680A435A613B685A697B68A5
:103F70001B68DB68DB0803F003035B0002FA03F352
:103F80003B663B681B69013B032B4FD801A252F8EB
:103F900023F000BFA53F0008C73F0008E93F000825
:103FA0000B4000087B681B681A6E994B13403A68F7
:103FB000126891063A6E0A431A437B681B6842F006
:103FC00000421A667BE07B681B685A6E904B134078
:103FD0003A68126891063A6E0A431A437B681B6876
:103FE00042F000425A666AE07B681B689A6E884B12
:103FF00013403A68126891063A6E0A431A437B6886
:104000001B6842F000429A6659E07B681B68DA6ED2
:104010007F4B13403A68126891063A6E0A431A437E
:104020007B681B6842F00042DA6648E07B681B68E8
:104030001B6E03F0F8423B681B689B069A4207D14F
:104040007B681B681A6E7B681B6822F000421A6648
:104050007B681B685B6E03F0F8423B681B689B063D
:104060009A4207D17B681B685A6E7B681B6822F0F6
:1040700000425A667B681B689B6E03F0F8423B68FF
:104080001B689B069A4207D17B681B689A6E7B6807
:104090001B6822F000429A667B681B68DB6E03F0A7
:1040A000F8423B681B689B069A4207D17B681B68F5
:1040B000DA6E7B681B6822F00042DA6600BF7B681C
:1040C0001B689B6803F00303012B08D17B681B6806
:1040D0001B6803F00103012B01D1012300E0002341
:1040E000002B40F031813B68DB68012B0FD07B68EF
:1040F0001B68D3F8B0103B681B68012202FA03F377
:10410000DA437B681B680A40C3F8B02049E07B684B
:104110001B68D3F8B0103B681B6801229A407B688B
:104120001B680A43C3F8B0203B681B68092B1CD9E5
:104130007B681B6899693B681A6813465B001344E7
:104140001B3B072202FA03F3DB4319403B689868E4
:104150003B681A6813465B0013441B3B00FA03F2EA
:104160007B681B680A439A611BE07B681B6859697E
:104170003B681B685A1C13465B001344072202FA73
:1041800003F3DB4319403B6898683B681B685A1C83
:1041900013465B00134400FA03F27B681B680A4372
:1041A0005A617B681B68B3F1A04F04D07B681B6821
:1041B000184A934201D1184B00E0184BFB653B684D
:1041C0001B68102B05D1FB6D9B6803F40003002BCB
:1041D00015D03B681B68112B05D1FB6D9B6803F064
:1041E0008073002B0BD03B681B68122B40F0AC8017
:1041F000FB6D9B6803F48003002B40F0A5807B6877
:104200001B68B3F1A04F0BD1024BFB6023E000BF52
:1042100000F0FF8300010050000300500007005031
:104220007B681B684E4A934203D14FF0A043FB606A
:1042300011E07B681B684B4A934202D14A4BFB60FA
:1042400009E07B681B68484A934202D1454BFB60FA
:1042500001E00023FB607B681B689B6803F003039D
:10426000012B08D17B681B681B6803F00103012B3D
:1042700001D1012300E00023002B50D1FB68002B6B
:1042800010D0FB689B6803F00303012B07D1FB6888
:104290001B6803F00103012B01D1012300E000237F
:1042A000002B3CD13B681B68102B1DD17B681B6821
:1042B000B3F1A04F18D1FB6D9B6843F40002FB6D76
:1042C0009A602A4B1B682A4AA2FB03239A0C1346C6
:1042D0009B0013445B00BB6002E0BB68013BBB601A
:1042E000BB68002BF9D12EE03B681B68112B0BD16A
:1042F0007B681B68B3F1A04F06D1FB6D9B6843F050
:104300008072FB6D9A601EE03B681B68122B1AD10D
:10431000FB6D9B6843F48002FB6D9A6013E07B6841
:104320001B6C43F020027B681A64012387F8673016
:104330000AE07B681B6C43F020027B681A6401234F
:1043400087F8673000E000BF7B68002283F83C20DC
:1043500097F8673018466C37BD465DF8047B7047A8
:10436000000100500004005000050050080000202B
:1043700083DE1B4380B499B000AF786039600023BE
:1043800087F85F307B681B68B3F1A04F02D16D4B9B
:10439000BB601AE07B681B686A4A934203D14FF006
:1043A000A043BB6011E07B681B68674A934202D15F
:1043B000664BBB6009E07B681B68644A934202D18C
:1043C000614BBB6001E00023BB60BB68002B01D1E7
:1043D0000123B0E07B6893F83C30012B01D102232C
:1043E000A9E07B68012283F83C207B681B689B68FE
:1043F00003F00403002B40F08D80BB689B6803F042
:104400000403002B40F086807B681B68B3F1A04F4B
:1044100004D07B681B684B4A934201D14C4B00E0AF
:104420004C4BBB653B681B68002B40D0BB6D9B6849
:1044300023F460423B6859687B6893F830305B0333
:104440000B431A43BB6D9A607B681B689B6803F043
:104450000303012B08D17B681B681B6803F0010371
:10446000012B01D1012300E00023002B5CD1BB68AC
:104470009B6803F00303012B07D1BB681B6803F0A3
:104480000103012B01D1012300E00023002B4BD1BC
:10449000BB6D9B6823F4716323F00F033A681168C6
:1044A0003A6892680A431A43BB6D9A603CE0BB6D60
:1044B0009B6823F46042BB6D9A607B681B689B68B5
:1044C00003F00303012B08D17B681B681B6803F012
:1044D0000103012B01D1012300E00023002B23D194
:1044E000BB689B6803F00303012B07D1BB681B6803
:1044F00003F00103012B01D1012300E00023002B75
:1045000012D1BB6D9B6823F4716323F00F03BA6D66
:10451000936009E07B681B6C43F020027B681A649F
:10452000012387F85F3000E000BF7B68002283F83A
:104530003C2097F85F3018466437BD465DF8047B31
:10454000704700BF000100500004005000050050FB
:10455000000300500007005080B584B000AF7860C1
:104560000023FB607B681B689B6803F00303012B3F
:1045700008D17B681B681B6803F00103012B01D184
:10458000012300E00023002B43D17B681B689A685D
:10459000224B1340002B0DD07B681B6C43F01002A4
:1045A0007B681A647B685B6C43F001027B685A6429
:1045B00001232FE07B681B689A687B681B6842F0C8
:1045C00001029A60FEF780FFF8601BE0FEF77CFFB7
:1045D0000246FB68D31A022B14D97B681B681B6840
:1045E00003F00103012B0DD07B681B6C43F010021C
:1045F0007B681A647B685B6C43F001027B685A64D9
:10460000012307E07B681B681B6803F00103012B93
:10461000DCD1002318461037BD4680BD3F00008026
:1046200080B584B000AF78600023FB607B681B68B6
:104630009B6803F00303012B08D17B681B681B6890
:1046400003F00103012B01D1012300E00023002B23
:1046500047D07B681B689B6803F00D03012B0FD1CB
:104660007B681B689A687B681B6842F002029A604C
:104670007B681B6803221A60FEF726FFF86029E0BA
:104680007B681B6C43F010027B681A647B685B6C70
:1046900043F001027B685A64012323E0FEF714FF14
:1046A0000246FB68D31A022B14D97B681B689B68EF
:1046B00003F00103012B0DD17B681B6C43F010024A
:1046C0007B681A647B685B6C43F001027B685A6408
:1046D000012307E07B681B689B6803F00103012B43
:1046E000DCD0002318461037BD4680BD80B586B0AB
:1046F00000AF7860396000237B610023FB600023FA
:104700003B617B681B689B6803F00C03002B00F087
:104710009B807B681B68DB6803F00073B3F1007F4C
:104720002AD17B685B7E012B26D17B681B7E012B07
:1047300022D10C233B6014E03B69464A93420DD9D9
:104740007B681B6C43F010027B681A647B685B6CAF
:1047500043F001027B685A64012376E03B69013330
:104760003B617B681B681B6803F04003402BE3D16F
:104770007B681B6840221A603B68602B15D07B6801
:104780001B689B6803F00403042B0ED17B681B6835
:104790009B6803F00203002B07D17B681B689A68B3
:1047A0007B681B6842F010029A603B680C2B15D0A6
:1047B0007B681B689B6803F00803082B0ED17B689D
:1047C0001B689B6803F00203002B07D17B681B6802
:1047D0009A687B681B6842F020029A603B68602BF5
:1047E00005D03B686C2B05D10C237B6105E00823C9
:1047F0007B6102E004237B6100BFFEF765FEF86089
:104800001BE0FEF761FE0246FB68D31A0B2B14D99E
:104810007B681B689A687B691340002B0DD07B680E
:104820001B6C43F010027B681A647B685B6C43F07E
:1048300001027B685A64012307E07B681B689A6861
:104840007B691340002BDCD1002318461837BD4686
:1048500080BD00BFFF93090080B485B000AF7860D1
:104860007B6803F00703FB600C4BDB68BB60BA6836
:104870004FF6FF031340BB60FB681A02BB6813438B
:1048800043F0BF6343F40033BB60044ABB68D360AA
:1048900000BF1437BD465DF8047B704700ED00E0B3
:1048A00080B400AF044BDB681B0A03F00703184613
:1048B000BD465DF8047B704700ED00E080B483B036
:1048C00000AF0346FB7197F90730002B0BDBFB7938
:1048D00003F01F02074997F907305B09012000FA2E
:1048E00002F241F8232000BF0C37BD465DF8047B7F
:1048F000704700BF00E100E080B483B000AF034622
:104900003960FB7197F90730002B0ADB3B68DAB29C
:104910000C4997F907301201D2B20B4483F80023F7
:104920000AE03B68DAB20849FB7903F00F03043B65
:104930001201D2B20B441A7600BF0C37BD465DF8A7
:10494000047B704700E100E000ED00E080B489B036
:1049500000AFF860B9607A60FB6803F00703FB61A1
:10496000FB69C3F10703042B28BF0423BB61FB6968
:104970000433062B02D9FB69033B00E000237B6173
:104980004FF0FF32BB6902FA03F3DA43BB681A4007
:104990007B699A404FF0FF317B6901FA03F3D943F9
:1049A0007B680B40134318462437BD465DF8047BF3
:1049B0007047000080B582B000AF78607B68013B33
:1049C000B3F1807F01D301230FE00A4A7B68013BEA
:1049D00053600F214FF0FF30FFF78EFF054B002291
:1049E0009A60044B07221A60002318460837BD4618
:1049F00080BD00BF10E000E080B582B000AF7860FD
:104A00007868FFF729FF00BF0837BD4680BD80B535
:104A100086B000AF0346B9607A60FB7300237B6108
:104A2000FFF73EFF78617A68B9687869FFF78EFF13
:104A3000024697F90F3011461846FFF75DFF00BF99
:104A40001837BD4680BD80B582B000AF0346FB710C
:104A500097F907301846FFF731FF00BF0837BD460A
:104A600080BD80B582B000AF78607868FFF7A2FFA4
:104A7000034618460837BD4680BD80B584B000AFF8
:104A800078600023FB607B68002B01D1012337E0B5
:104A90007B68022283F821207B681B681B68FB600F
:104AA000FB6823F47F5323F03003FB607B685A6874
:104AB0007B689B681A437B68DB681A437B681B69C9
:104AC0001A437B685B691A437B689B691A437B685E
:104AD000DB691343FA681343FB607B681B68FA6861
:104AE0001A60786800F0B4F87B6800229A637B68EB
:104AF000012283F821207B68002283F820200023F4
:104B000018461037BD4680BD80B584B000AF7860D0
:104B10007B68DB6B1B68FB607B681B681B68BB608A
:104B20007B681B6C04229A40FB681340002B24D046
:104B3000BB6803F00403002B1FD07B681B681B6855
:104B400003F02003002B07D17B681B681A687B6881
:104B50001B6822F004021A607B681A6C7B68DB6BAE
:104B6000042101FA02F25A607B68DB6A002B6AD0EA
:104B70007B68DB6A7868984765E07B681B6C02227B
:104B80009A40FB681340002B2CD0BB6803F0020353
:104B9000002B27D07B681B681B6803F02003002BC9
:104BA0000BD17B681B681A687B681B6822F00A02BD
:104BB0001A607B68012283F821207B681A6C7B686D
:104BC000DB6B022101FA02F25A607B68002283F853
:104BD00020207B689B6A002B35D07B689B6A7868B5
:104BE000984730E07B681B6C08229A40FB681340B2
:104BF000002B28D0BB6803F00803002B23D07B6870
:104C00001B681A687B681B6822F00E021A607B68BA
:104C10001A6C7B68DB6B012101FA02F25A607B6837
:104C200001229A637B68012283F821207B6800229D
:104C300083F820207B681B6B002B04D07B681B6BE8
:104C400078689847FFE700BF1037BD4680BD000079
:104C500080B483B000AF78607B681B681A46144B41
:104C60009A420FD87B681B681A46124B1344124AAB
:104C7000A2FB03231B099A007B681A647B680F4A16
:104C8000DA630EE07B681B681A460D4B13440A4A30
:104C9000A2FB03231B099A007B681A647B68094AFC
:104CA000DA6300BF0C37BD465DF8047B704700BF78
:104CB00007040240F8FFFDBFCDCCCCCC0000024081
:104CC000F8FBFDBF0004024080B487B000AF7860FD
:104CD000396000237B6154E13B681A6801217B69DC
:104CE00001FA03F31340FB60FB68002B00F04681E0
:104CF0003B685B6803F00303012B05D03B685B68EE
:104D000003F00303022B30D17B689B683B617B6916
:104D10005B00032202FA03F3DB433A6913403B6171
:104D20003B68DA687B695B0002FA03F33A69134374
:104D30003B617B683A699A607B685B683B610122F2
:104D40007B6902FA03F3DB433A6913403B613B683A
:104D50005B681B0903F001027B6902FA03F33A69FD
:104D600013433B617B683A695A603B685B6803F0B8
:104D70000303032B17D07B68DB683B617B695B0017
:104D8000032202FA03F3DB433A6913403B613B68B9
:104D90009A687B695B0002FA03F33A6913433B614B
:104DA0007B683A69DA603B685B6803F00303022BB7
:104DB00023D17B69DA087B68083253F822303B61E3
:104DC0007B6903F007039B000F2202FA03F3DB4326
:104DD0003A6913403B613B681A697B6903F007033A
:104DE0009B0002FA03F33A6913433B617B69DA08DB
:104DF0007B680832396943F822107B681B683B6185
:104E00007B695B00032202FA03F3DB433A69134038
:104E10003B613B685B6803F003027B695B0002FA5D
:104E200003F33A6913433B617B683A691A603B6854
:104E30005B6803F44033002B00F0A080584B9B6963
:104E4000574A43F001039361554B9B6903F00103FB
:104E5000BB60BB68534A7B699B08023352F823301E
:104E60003B617B6903F003039B000F2202FA03F30B
:104E7000DB433A6913403B617B68B3F1904F19D033
:104E80007B68494A934213D07B68484A93420DD0CD
:104E90007B68474A934207D07B68464A934201D1D8
:104EA000042308E0052306E0032304E0022302E0D4
:104EB000012300E000237A6902F00302920093408C
:104EC0003A6913433B6137497B699B0802333A696E
:104ED00041F82320384B9B683B61FB68DB433A6910
:104EE00013403B613B685B6803F48013002B03D0E5
:104EF0003A69FB6813433B612F4A3B6993602E4B31
:104F0000DB683B61FB68DB433A6913403B613B680C
:104F10005B6803F40013002B03D03A69FB6813436A
:104F20003B61254A3B69D360234B5B683B61FB686F
:104F3000DB433A6913403B613B685B6803F4003331
:104F4000002B03D03A69FB6813433B611A4A3B6963
:104F50005360194B1B683B61FB68DB433A691340A4
:104F60003B613B685B6803F48033002B03D03A69F4
:104F7000FB6813433B61104A3B6913607B69013353
:104F80007B613B681A687B6922FA03F3002B7FF48C
:104F9000A3AE00BF00BF1C37BD465DF8047B704761
:104FA00000100240000001400004004800080048D2
:104FB000000C0048001000480004014080B485B097
:104FC00000AF78600B467B807B681A697B88134052
:104FD000002B02D00123FB7301E00023FB73FB7B5A
:104FE00018461437BD465DF8047B704780B483B023
:104FF00000AF78600B467B8013467B707B78002B7C
:1050000003D07A887B689A6102E07A887B689A622A
:1050100000BF0C37BD465DF8047B704780B485B097
:1050200000AF78600B467B807B685B69FB607A88A9
:10503000FB6813401A04FB68D9437B880B401A4372
:105040007B689A6100BF1437BD465DF8047B7047EA
:1050500080B582B000AF78607B68002B01D101235E
:105060008DE07B6893F84130DBB2002B06D17B6882
:10507000002283F840207868FEF75EF87B682422DF
:1050800083F841207B681B681A687B681B6822F0E4
:1050900001021A607B685A687B681B6822F07062A4
:1050A0001A617B681B689A687B681B6822F400425F
:1050B0009A607B68DB68012B07D17B689A687B6804
:1050C0001B6842F400429A6006E07B689A687B683D
:1050D0001B6842F404429A607B68DB68022B08D1AB
:1050E0007B681B685A687B681B6842F400625A60E0
:1050F00007E07B681B685A687B681B6822F40062C3
:105100005A607B681B685B687A68126843F00073BA
:1051100043F4004353607B681B68DA687B681B6854
:1051200022F40042DA607B681A697B685B6942EAB4
:1051300003017B689B691A027B681B680A43DA607B
:105140007B68D9697B681A6A7B681B680A431A60A6
:105150007B681B681A687B681B6842F001021A6052
:105160007B6800225A647B68202283F841207B6898
:1051700000221A637B68002283F84220002318462D
:105180000837BD4680BD000080B588B002AFF8602A
:105190007A601A460B467B8113463B81FB6893F885
:1051A0004130DBB2202B40F0FD80FB6893F84030AB
:1051B000012B01D10223F6E0FB68012283F8402095
:1051C000FEF782F938613B690093192301224FF4FD
:1051D0000041F86800F06EFB0346002B01D001236C
:1051E000E1E0FB68212283F84120FB68102283F86C
:1051F0004220FB6800225A64FB687A685A62FB68A6
:105200003A895A85FB6800225A63FB685B8D9BB222
:10521000FF2B06D9FB68FF221A854FF080737B6154
:1052200007E0FB685B8D9AB2FB681A854FF000734C
:105230007B61FB681B8D002B24D0FB685B6A1A78AE
:10524000FB681B689A62FB685B6A5A1CFB685A62BF
:10525000FB685B8D9BB2013B9AB2FB685A85FB6889
:105260001B8D013B9AB2FB681A85FB681B8DDBB274
:105270000133DAB279894E4B00937B69F86800F00C
:10528000DDFC66E0FB681B8DDAB27989484B009340
:105290007B69F86800F0D2FC5BE03A69396AF8682B
:1052A00000F061FB0346002B01D001237BE0FB688B
:1052B0005B6A1A78FB681B689A62FB685B6A5A1C17
:1052C000FB685A62FB685B8D9BB2013B9AB2FB683C
:1052D0005A85FB681B8D013B9AB2FB681A85FB68F7
:1052E0005B8D9BB2002B34D0FB681B8D002B30D123
:1052F0003B6900933B6A00228021F86800F0DAFAEB
:105300000346002B01D001234DE0FB685B8D9BB26F
:10531000FF2B0ED9FB68FF221A85FB681B8DDAB2C2
:105320007989002300934FF08073F86800F086FCC1
:105330000FE0FB685B8D9AB2FB681A85FB681B8DDA
:10534000DAB27989002300934FF00073F86800F017
:1053500075FCFB685B8D9BB2002B9ED13A69396A64
:10536000F86800F047FB0346002B01D001231AE048
:10537000FB681B682022DA61FB681B685968FB68C0
:105380001A680C4B0B405360FB68202283F84120C5
:10539000FB68002283F84220FB68002283F840204B
:1053A000002300E0022318461837BD4680BD00BF29
:1053B0000020008000E800FE80B588B002AFF860F1
:1053C000084611461A4603467B810B463B8113462D
:1053D000FB80FB6893F84130DBB2202B40F0FD806E
:1053E0003B6A002B02D0BB8C002B05D1FB684FF42D
:1053F00000725A640123F1E0FB6893F84030012BFE
:1054000001D10223EAE0FB68012283F84020FEF785
:105410005BF878617B690093192301224FF4004106
:10542000F86800F047FA0346002B01D00123D5E0CD
:10543000FB68222283F84120FB68402283F8422047
:10544000FB6800225A64FB683A6A5A62FB68BA8CAD
:105450005A85FB6800225A63F8883A8979897B6902
:105460000193BB6A00930346F86800F0ABF903466A
:10547000002B05D0FB68002283F840200123ADE01B
:10548000FB685B8D9BB2FF2B0ED9FB6801221A854E
:10549000FB681B8DDAB27989524B00934FF0807311
:1054A000F86800F0CBFB0FE0FB685B8D9AB2FB68FD
:1054B0001A85FB681B8DDAB279894A4B00934FF04D
:1054C0000073F86800F0BAFB7B690093BB6A0022A6
:1054D0000421F86800F0EEF90346002B01D0012307
:1054E0007CE0FB681B685A6AFB685B6AD2B21A7080
:1054F000FB685B6A5A1CFB685A62FB681B8D013BA8
:105500009AB2FB681A85FB685B8D9BB2013B9AB22D
:10551000FB685A85FB685B8D9BB2002B34D0FB681F
:105520001B8D002B30D17B690093BB6A0022802148
:10553000F86800F0BFF90346002B01D001234DE0CD
:10554000FB685B8D9BB2FF2B0ED9FB6801221A858D
:10555000FB681B8DDAB27989002300934FF08073CA
:10556000F86800F06BFB0FE0FB685B8D9AB2FB689C
:105570001A85FB681B8DDAB27989002300934FF0FE
:105580000073F86800F05AFBFB685B8D9BB2002B40
:105590009AD17A69B96AF86800F02CFA0346002BB0
:1055A00001D001231AE0FB681B682022DA61FB6846
:1055B0001B685968FB681A680B4B0B405360FB680B
:1055C000202283F84120FB68002283F84220FB68F8
:1055D000002283F84020002300E0022318461837F9
:1055E000BD4680BD0024008000E800FE80B58AB082
:1055F00002AFF8607A603B600B467B8100237B61E1
:10560000FB6893F84130DBB2202B40F0D680FB687A
:105610001B689B6903F40043B3F5004F01D10223DB
:10562000CCE0FB6893F84030012B01D10223C5E0A8
:10563000FB68012283F84020FB68242283F8412084
:10564000FB6800225A64FB68DB68012B07D17B8969
:10565000C3F3090343F0007343F4005306E07B896E
:10566000C3F3090343F0007343F42053FA6812684C
:105670005360FDF729FFB861FB681B689B6903F065
:105680002003202B0CBF01230023DBB2FB77FB6838
:105690001B689B6903F01003102B0CBF0123002330
:1056A000DBB2BB7734E03B68B3F1FF3F1AD0FDF7C4
:1056B0000BFF0246BB69D31A3A689A4202D33B6891
:1056C000002B0FD1FB68202283F84120FB685B6C24
:1056D00043F02002FB685A64FB68002283F84020F4
:1056E00001236BE0FB681B689B6903F02003202B00
:1056F0000CBF01230023DBB2FB77FB681B689B69AF
:1057000003F01003102B0CBF01230023DBB2BB7787
:10571000FB7F002B02D1BB7F002BC4D0FB681B6832
:105720009B6903F01003102B1AD0BB6900933B68F0
:1057300000222021F86800F0BDF80346002B01D0BC
:1057400001233BE0FB681B682022DA61FB68202212
:1057500083F84120FB68002283F8402000232DE0DD
:10576000BB6900933B6800222021F86800F0A2F892
:105770000346002B01D0012320E0FB681B681022A8
:10578000DA61FB681B682022DA617B6901337B6187
:105790007B697A689A423FF656AFFB68202283F80D
:1057A0004120FB685B6C43F02002FB685A64FB6895
:1057B000002283F84020012300E00223184620370E
:1057C000BD4680BD80B586B002AFF8600846114680
:1057D0001A4603467B810B463B811346FB80FB88C0
:1057E000DAB27989204B00930023F86800F026FA9A
:1057F000FA69B969F86800F0B6F80346002B01D0E1
:1058000001232CE0FB88012B05D13B89DAB2FB6830
:105810001B689A6215E03B891B0A9BB2DAB2FB68EF
:105820001B689A62FA69B969F86800F09CF8034647
:10583000002B01D0012312E03B89DAB2FB681B6820
:105840009A62FB690093BB6900224021F86800F06E
:1058500031F80346002B01D0012300E00023184655
:105860001037BD4680BD00BF0020008080B483B0EB
:1058700000AF78607B681B689B6903F00203022B12
:1058800003D17B681B6800229A627B681B689B6956
:1058900003F00103012B07D07B681B689A697B68C2
:1058A0001B6842F001029A6100BF0C37BD465DF8EB
:1058B000047B704780B584B000AFF860B9603B608E
:1058C0001346FB713BE0BA693968F86800F0D6F816
:1058D0000346002B01D0012341E03B68B3F1FF3FB9
:1058E0002DD0FDF7F1FD0246BB69D31A3A689A4202
:1058F00002D33B68002B22D1FB681B689A69BB6806
:105900001340BA689A420CBF01230023DBB21A4647
:10591000FB799A4213D1FB685B6C43F02002FB6871
:105920005A64FB68202283F84120FB68002283F838
:105930004220FB68002283F8402001230FE0FB682F
:105940001B689A69BB681340BA689A420CBF01236E
:105950000023DBB21A46FB799A42B4D000231846E2
:105960001037BD4680BD80B584B000AFF860B96027
:105970007A6033E07A68B968F86800F07FF8034627
:10598000002B01D0012331E0BB68B3F1FF3F25D0EC
:10599000FDF79AFD02467B68D31ABA689A4202D391
:1059A000BB68002B1AD1FB681B689B6903F00203DC
:1059B000022B13D0FB685B6C43F02002FB685A6437
:1059C000FB68202283F84120FB68002283F84220F4
:1059D000FB68002283F84020012307E0FB681B6876
:1059E0009B6903F00203022BC4D100231846103731
:1059F000BD4680BD80B584B000AFF860B9607A6004
:105A00002FE07A68B968F86800F038F80346002B90
:105A100001D001232DE0FDF757FD02467B68D31A24
:105A2000BA689A4202D3BB68002B1AD1FB681B6884
:105A30009B6903F02003202B13D0FB685B6C43F0C1
:105A40002002FB685A64FB68202283F84120FB682F
:105A5000002283F84220FB68002283F840200123C3
:105A600007E0FB681B689B6903F02003202BC8D16B
:105A7000002318461037BD4680BD000080B58AB0AF
:105A800000AFF860B9607A60002387F82730FB68C0
:105A90001B689B69BB6100233B627B68FB61BB6940
:105AA00003F01003002B68D0FB681B681022DA613A
:105AB00049E0BB68B3F1FF3F45D0FDF705FD024665
:105AC000FB69D31ABA689A4202D3BB68002B3AD159
:105AD000FB681B685B6803F480437B61FB6893F899
